:10000000ADEF01F00C50726F673A203720626974CF
:1000100073207A65726F202564000C254C752020B2
:100020002D2020256400EA6A0A0EE96EEF500EE0EA
:10003000130E016E006A002EFED7012EFBD7730E41
:10004000006E002EFED70000EF2EF2D712000E50E9
:10005000100805E00F6E0C360D360F2EFCD7948875
:10006000949A94968B960EC00FF00DAE8B9A0DBE9F
:100070008B8A0C360D36050E106E102EFED78B8631
:1000800000000136023682A8019082B801808B966A
:100090000F2EEBD71200000B006E0A50800B036E80
:1000A0000050031001E0058E0950100B006E036A2A
:1000B0000050031001E004880950030B006E036A2E
:1000C000005003101CE00950030B006E036A03503C
:1000D00003E1010E005C0BE0035003E1020E005C43
:1000E00008E0035003E1030E005C05E007D0048044
:1000F00006D0048204D0030E041201D000D00950AF
:100100000C0B006E036A005003101CE009500C0B2E
:10011000006E036A035003E1040E005C0BE0035021
:1001200003E1080E005C08E0035003E10C0E005CE4
:1001300005E007D0048406D0048604D00C0E041217
:1001400001D000D00B5213E00D6A0B34026E0D3457
:10015000036E0236033602360336023603360236A3
:100160000336E00E02160250041203500512949A50
:100170008B8A090E006E002EFED700D0929A898AD3
:10018000090E006E002EFED700D005C00DF004C091
:100190000CF0100E0E6E5BDFD8EF01F00900F6CF09
:1001A0000DF0F7CF0EF0F5509EA8FED7AD6E0DC046
:1001B000F6FF0EC0F7FF0C2EF1D712001350016AA4
:1001C000125C03E212C000F00CD0006A080E146E3C
:1001D000123600361350005CD8B0006E0136142E73
:1001E000F7D71200200E0DA8300E0E6E0CC000F0D6
:1001F0000CAE07D0001E002A00C00CF02D0E0E6EB3
:100200000D8E01500CC012F0640E136ED7DF00C0CB
:100210000CF0300E01240F6E0CC012F00A0E136E9B
:10022000CDDF300E0024116E300E0124106E0EC092
:1002300000F00DA602D00DAE0D940DB80BD00DAE92
:1002400022D00DB420D000C00FF00DB21CD000C0E1
:1002500010F019D0300E0F5C16E100C00FF0200E28
:100260000E6E0DA604D00D940D820DAE0D92300EC3
:10027000105C09E100C010F0200E0F6E0DA6F7D73C
:100280000D920DAE0D900DA404D00E509EA8FED779
:10029000AD6E0DA204D00F509EA8FED7AD6E0DA07E
:1002A00004D010509EA8FED7AD6E11509EA8FED768
:1002B000AD6E1200EACF14F0E9CF13F00D38F0095B
:1002C0000F6E0F26E20F106E320F126E0D500F0BD5
:1002D000102610261226E90F116E112611260C3851
:1002E0000F0B1126122611361236121E12360C5022
:1002F0000F0B12260F36070E0E6E0A0E110612266F
:10030000FDE310061126FDE30F061026FDE30E06A1
:100310000F26FDE3EA6A0E0EE96E070E1314139C16
:10032000E926120EE95CD8B4138CEF50006E08E198
:1003300013BC06D013B80CD013B602D0200E03D0D5
:1003400013861398300E002600509EA8FED7AD6E7F
:10035000EE5013ACE6D715EF02F0F86AD09EEA6AC9
:10036000E96AB8861A0EAF6E060EB06EA60EAC6EB7
:10037000900EAB6E9488949A94968B96000E7E6E37
:10038000C198C19A7F50E00B7F6E799A79987A6A0A
:100390007B6A046A056A066A076A086A640E0A6E5E
:1003A00042DE086A0A6A0E0E096E08C00BF073D6A8
:1003B000040EF66E000EF76E130E0C6EEFDE08C024
:1003C0000CF01F0E0D6E0EDF929A899A0D6A0C6A60
:1003D000100E0E6E3CDE015002C007F001C006F0A8
:1003E000929A898A07300A6E0630096E0A320932FB
:1003F0000A3209320A3209320A3209320A32093221
:10040000030E0A160650060B006E036A0050D890C1
:1004100000300B6E0C0E9EA8FED7AD6E100EE96E6E
:100420000AC00DF009C00CF045D71E0EF66E000E86
:10043000F76E050E0C6EB2DE0BC00CF01F0E0D6ECB
:10044000D1DE020E096EFA0E0A6EEDDD092EFBD723
:04045000BBD7030013
:020000040030CA
:0E00000000C61E1E008F81000FC00FE00F40D3
:00000001FF
;PIC18F45K20
;CRC=EA15  CREATED="28-mar-13 10:10"
