:10000000A9EF00F00C5072657373696F6E61646FD5
:100010002042746F20536F6265000C5072657373D9
:10002000696F6E61646F2042746F2044657363650D
:1000300000000C426F746F657320536F6C746F73A4
:100040000000EA6A060EE96EEF500EE0140E016E33
:10005000006A002EFED7012EFBD7BF0E006E002EC9
:10006000FED700D0EF2EF2D712000650070B006E1D
:100070000630016E013201321F0E011601500824B4
:10008000E96E000E0920EA6E016A012A002A01D0F9
:100090000136002EFDD7075203E00150EF1203D0C6
:1000A000011E0150EF1612000650070B006E0630BD
:1000B000016E013201321F0E011601500724E96E54
:1000C000000E0820EA6EEFCF01F0002A01D00132C5
:1000D000002EFDD7120005C006F0010E076E0F0EB0
:1000E000096E920E086EC1DF05C006F00F0E086E95
:1000F000800E076ED9DF01B018D0640E066EA1DF46
:1001000005C006F0010E076E0F0E096E920E086E06
:10011000ACDF05C006F00F0E086E800E076EC4DF60
:10012000000E01A0010E016E02D0000E016E120041
:100130000900F5520DE0F6CF05F0F7CF06F0F550C7
:100140009EA8FED7AD6E05C0F6FF06C0F7FFF0D73C
:100150001200F86AD09EEA6AE96AB886820EAF6E2B
:10016000060EB06EA60EAC6E900EAB6E94869488A2
:10017000C86A360EC66EC580000E7E6EC198C19AE2
:100180007F50E00B7F6E799A79987A6A7B6A020ECB
:10019000056E960E066E55DF052EFBD7180E056E02
:1001A0009ADF049201B00482190E056E94DF049464
:1001B00001B0048404A209D004A007D00490040E66
:1001C000F66E000EF76EB4DF17D004A409D004A0B9
:1001D00007D004901A0EF66E000EF76EA9DF0CD051
:1001E00004B20AD004B408D004B006D00480320EA1
:1001F000F66E000EF76E9CDFD1D7000E016E030085
:020000040030CA
:0E00000000C61E1E008F81000FC00FE00F40D3
:00000001FF
;PIC18F45K20
;CRC=FE10  CREATED="14-fev-14 16:47"
