:0400000060EF01F0BC
:08000800046ED8CF05F0E0CF33
:1000100006F00001E9CF0CF0EACF07F0E1CF08F0DD
:10002000E2CF09F0D9CF0AF0DACF0BF0F3CF12F01C
:10003000F4CF13F0FACF14F0F5CF15F0F6CF16F099
:10004000F7CF17F000C00EF001C00FF002C010F0A3
:1000500003C011F09DA630EF00F09EB662EF00F0F5
:100060000EC000F00FC001F010C002F011C003F08C
:100070000CC0E9FF07C0EAFF078E08C0E1FF09C016
:10008000E2FF0AC0D9FF0BC0DAFF12C0F3FF13C0B2
:10009000F4FF14C0FAFF15C0F5FF16C0F6FF17C035
:1000A000F7FF045006C0E0FF05C0D8FF1000C9509C
:1000B0003CC0C9FFC6889E96C7B0FED7016AC6B8C5
:1000C000012A1200C7BA03D0316AC7B4318E315049
:1000D000312A2C6E2C507F081EE3C69C9EA6FED7AC
:1000E000C950C6882D6E2C2C04D02E6A2DC02EF03F
:1000F00011D02C50020808E12F6A2DC02FF02EC01D
:1001000020F02FC01FF006D02C50030803E1306A06
:100110002DC030F012D02C5080080FE12E5206E195
:100120001AC03BF01AC03CF0C2DF07D02E2C05D01D
:1001300019C03BF019C03CF0BADF9E9630EF00F0DA
:10014000EACF3AF0E9CF39F03338F009356E352689
:10015000E20F366E320F386E33500F0B36263626CE
:100160003826E90F376E3726372632380F0B3726F9
:10017000382637363836381E383632500F0B382688
:100180003536070E346E0A0E37063826FDE336067E
:100190003726FDE335063626FDE334063526FDE336
:1001A000EA6A340EE96E070E3914399CE926380ED6
:1001B000E95CD8B4398CEF50006E08E139BC06D048
:1001C00039B80CD039B602D0200E03D03986399810
:1001D000300E002600509EA8FED7AD6EEE5039AC12
:1001E000E6D71200EACF3AF0E9CF39F033AE08D0C3
:1001F000398E39A8392A321E331E322AD8B4332A0E
:100200003338F009356E3526E20F366E320F386E10
:1002100033500F0B362636263826E90F376E372631
:10022000372632380F0B3726382637363836381E01
:10023000383632500F0B38263536070E346E0A0E1C
:1002400037063826FDE336063726FDE33506362623
:10025000FDE334063526FDE3EA6A340EE96E070E47
:100260003914399CE906391407E139B8E92A39B853
:1002700003D0200E006E1CD0E926380EE95CD8B4FD
:10028000398CEF50006E08E139BC06D039B814D073
:1002900039B602D0200E0BD039AE06D02D0E006E2E
:1002A000ED50399C399E04D039863998300E00269D
:1002B00000509EA8FED7AD6EEE5039ACDED71200CE
:1002C000F86AD09E078EEA6AE96AB8861A0EAF6E9F
:1002D000060EB06EA60EAC6E900EAB6E9486948831
:1002E000C86A360EC66EC580030E316E000E7E6E75
:1002F000C198C19A7F50E00B7F6E799A79987A6A9B
:100300007B6A196A1A6A1B6A1C6A1D6A1E6A1F6A5E
:10031000206A216A226A236A246A256A266A276A71
:10032000286A296A2A6A2B902C6A2D6A2E6A2F6AFB
:10033000306AD76AD66A870ECD6E010E7C6EF19E4A
:10034000F086F19AC00EF212D650276ED7CF28F061
:1003500021502724326E22502820336E235032241D
:10036000016E24503320036E01501D5C04E10350E4
:100370001E5CD8B46CD021502724326E2250282025
:10038000336E23503224016E2450332001C01DF0FF
:100390001E6E2A50285C08E303E12750295C04E222
:1003A00028C02AF027C029F02650225C08E303E188
:1003B0002150255C04E222C003F021500ED02650CB
:1003C000245C08E303E12350255C04E224C003F02D
:1003D000235003D026C003F02550256E03C026F01D
:1003E0000C0E9EA8FED7AD6E100EE96E28C033F03D
:1003F00027C032F0A5DE200E9EA8FED7AD6E100EEF
:10040000E96E2AC033F029C032F09ADE0A0E9EA8A7
:10041000FED7AD6E100EE96E22C033F021C032F06F
:10042000E1DE200E9EA8FED7AD6E100EE96E24C050
:1004300033F023C032F0D6DE200E9EA8FED7AD6E7C
:10044000100EE96E26C033F025C032F0CBDE7CD72B
:020450000300A7
:020000040030CA
:0E00000000C61E1E008F81000FC00FE00F40D3
:00000001FF
;PIC18F45K20
;CRC=5B5D  CREATED="13-fev-14 09:47"
