:1000000054EF00F0EACF13F0E9CF12F00C38F0090A
:100010000E6E0E26E20F0F6E320F116E0C500F0B8C
:100020000F260F261126E90F106E102610260B380A
:100030000F0B1026112610361136111E11360B50DB
:100040000F0B11260E36070E0D6E0A0E1006112626
:10005000FDE30F061026FDE30E060F26FDE30D0659
:100060000E26FDE3EA6A0D0EE96E070E1214129CCD
:10007000E926110EE95CD8B4128CEF50006E08E14D
:1000800012BC06D012B80CD012B602D0200E03D08B
:1000900012861298300E002600509EA8FED7AD6E34
:1000A000EE5012ACE6D71200F86AD09EEA6AE96A0E
:1000B000B8861A0EAF6E060EB06EA60EAC6E900E1F
:1000C000AB6E000E7E6EC198C19A7F50E00B7F6EC2
:1000D000799A79987A6A7B6A046A056A066A076A75
:1000E000086A096A0A900A920A94D76AD66AB00E18
:1000F000D56E958083B00ED0958283A20BD00AA2D4
:1001000005D00A9207C0D7FF06C0D6FFD650066EAC
:10011000D7CF07F0958283B209D0958083A006D00F
:10012000D650085C066ED7500958076E958083A09C
:100130000ED0958283A20BD00AA009D0D76AD66AC6
:1001400007C009F006C008F00A820A8401D00A80BC
:100150000450065C03E10550075C1AE007C005F097
:1001600006C004F00C0E9EA8FED7AD6E100EE96E10
:1001700007C00CF006C00BF045DF200E9EA8FED78E
:10018000AD6E100EE96E09C00CF008C00BF03ADF3E
:04019000B0D70300E1
:020000040030CA
:0E00000000C61E1E008F81000FC00FE00F40D3
:00000001FF
;PIC18F45K20
;CRC=5E4F  CREATED="01-ago-13 14:36"
