:040000007AEF01F0A2
:08000800046ED8CF05F0E0CF33
:1000100006F00001E9CF0CF0EACF07F0E1CF08F0DD
:10002000E2CF09F0D9CF0AF0DACF0BF0F3CF12F01C
:10003000F4CF13F0FACF14F0F5CF15F0F6CF16F099
:10004000F7CF17F000C00EF001C00FF002C010F0A3
:1000500003C011F0F2A830EF00F0F2B25DEF00F053
:10006000F0A636EF00F0F0B06FEF00F00EC000F039
:100070000FC001F010C002F011C003F00CC0E9FF86
:1000800007C0EAFF078E08C0E1FF09C0E2FF0AC00F
:10009000D9FF0BC0DAFF12C0F3FF13C0F4FF14C086
:1000A000FAFF15C0F5FF16C0F6FF17C0F7FF0450A2
:1000B00006C0E0FF05C0D8FF1000F292192AD8B49C
:1000C0001A2A1C501A5C08E303E119501B5C04E275
:1000D0001AC01CF019C01BF0F29236EF00F0F0903D
:1000E0001A6A196A1D2AF09036EF00F00A0D507551
:1000F0006C736F733A20254C752C205A65726F73A0
:100100003A2564204D61783A254C75000900F6CFF8
:100110001FF0F7CF20F0F5509EA8FED7AD6E1FC0A0
:10012000F6FF20C0F7FF1E2EF1D71200EACF26F00F
:10013000E9CF25F01F38F009216E2126E20F226E4B
:10014000320F246E1F500F0B222622262426E90F81
:10015000236E232623261E380F0B23262426233620
:100160002436241E24361E500F0B24262136070E5B
:10017000206E0A0E23062426FDE322062326FDE335
:1001800021062226FDE320062126FDE3EA6A200E51
:10019000E96E070E2514259CE926240EE95CD8B4E7
:1001A000258CEF50006E08E125BC06D025B80CD098
:1001B00025B602D0200E03D025862598300E0026C5
:1001C00000509EA8FED7AD6EEE5025ACE6D71200CB
:1001D0002550016A245C03E224C000F00CD0006AC0
:1001E000080E266E243600362550005CD8B0006E0E
:1001F0000136262EF7D71200200E1FA8300E206ED3
:100200001EC000F01EAE07D0001E002A00C01EF067
:100210002D0E206E1F8E01501EC024F0640E256E20
:10022000D7DF00C01EF0300E0124216E1EC024F066
:100230000A0E256ECDDF300E0024236E300E012411
:10024000226E20C000F01FA602D01FAE1F941FB860
:100250000BD01FAE22D01FB420D000C021F01FB29F
:100260001CD000C022F019D0300E215C16E100C075
:1002700021F0200E206E1FA604D01F941F821FAEF7
:100280001F92300E225C09E100C022F0200E216E88
:100290001FA6F7D71F921FAE1F901FA404D0205097
:1002A0009EA8FED7AD6E1FA204D021509EA8FED7F7
:1002B000AD6E1FA004D022509EA8FED7AD6E235075
:1002C0009EA8FED7AD6EB4EF01F0EA6A1F0EE96E8C
:1002D000EF500EE00C0E016E006A002EFED7012ECC
:1002E000FBD7F70E006E002EFED700D0EF2EF2D710
:1002F000C7EF01F0F86AD09E078EEA6AE96A400EFD
:10030000AF6EA20EAC6E900EAB6E9488949A9496DB
:100310008B96C180C182C184C196196A1A6A1B6A10
:100320001C6A1D6AF292F090F288F19CF086F19AB4
:10033000C00EF212EC0EF66E000EF76E0A0E1E6E76
:10034000E5DE100EE96E1AC01FF019C01EF0EEDED9
:10035000F90EF66E000EF76E080E1E6ED7DE1DC08B
:100360001EF01F0E1F6E48D7030EF66E010EF76EBD
:10037000050E1E6ECBDE100EE96E1CC01FF01BC0FA
:100380001EF0D4DE020E1E6EFA0E1F6E9ED71E2EBB
:06039000FBD7D0D70300EB
:020000040030CA
:0E00000000260E0E000181000FC00FE00F4021
:00000001FF
;PIC18F452
;CRC=8062  CREATED="26-mar-13 16:33"
