:04000000A4EF04F075
:08000800046ED8CF05F0E0CF33
:1000100006F00001E9CF0CF0EACF07F0E1CF08F0DD
:10002000E2CF09F0D9CF0AF0DACF0BF0F3CF12F01C
:10003000F4CF13F0FACF14F0F5CF15F0F6CF16F099
:10004000F7CF17F000C00EF001C00FF002C010F0A3
:1000500003C011F0F2A830EF00F0F2B25DEF00F053
:10006000F0A636EF00F0F0B090EF00F00EC000F018
:100070000FC001F010C002F011C003F00CC0E9FF86
:1000800007C0EAFF078E08C0E1FF09C0E2FF0AC00F
:10009000D9FF0BC0DAFF12C0F3FF13C0F4FF14C086
:1000A000FAFF15C0F5FF16C0F6FF17C0F7FF0450A2
:1000B00006C0E0FF05C0D8FF1000F292938481A42F
:1000C00004D0192AD8B41A2A04D01950D8B41A0660
:1000D00019061EAE03D01AAE0AD002D01ABE0BD03B
:1000E0001E501A5C08E303E119501D5C04E21AC0BB
:1000F0001EF019C01DF01AAE03D01CAE0AD002D0FB
:100100001CBE0BD01A501C5C08E303E11B50195CA9
:1001100004E21AC01CF019C01BF0F29236EF00F096
:10012000F0901A6A196A1F2AF09036EF00F0939E39
:100130008A8E939C8A8CC0EF04F0EA6A320EE96ED4
:10014000EF500EE00C0E016E006A002EFED7012E5D
:10015000FBD7F70E006E002EFED700D0EF2EF2D7A1
:100160001200956A37C08CFF210E006E002EFED75C
:1001700096928D82210E006E002EFED796928D9261
:100180001200956A8C6A96908D9096928D920F0EC1
:10019000326ED3DF010E206E2050030808E3300ECC
:1001A000376EDFDF050E326EC8DF202AF5D7380E36
:1001B000376ED7DF010E376ED4DF010E326EBDDF32
:1001C0000C0E376ECEDF060E376ECBDFC1EF04F0BC
:1001D000939C8A8C320E326EB0DF939E8A9ECFEF54
:1001E00004F08E0E006E25C001F024C002F0036AF8
:1001F00025AE05D0011E021E022A01E1012A01528C
:1002000009E102C001F0026A080E005E015202E13B
:10021000006A0AD0D89001BE04D00236013600062A
:10022000F9D725BE01D0019E12002450D8B4A5D024
:10023000306E2850D8B4A1D0305E05E37F0E302652
:10024000D8B09BD006D0810E305ED8A096D0D8B45E
:1002500094D030C000F0016A026A036A2F6A25C098
:100260002EF02E8E26C02DF027C02CF0190E306EE9
:100270002B502C5E0DE2010E2D5E0AE22E5E08E28E
:100280002F5E06E22F2A2E2A2D2A2B502C2628D02C
:100290002A502D5E12E2010E2E5E0FE22F5E0DE25D
:1002A0002F2A2E2A2A502D262B502C2619E32D2AB0
:1002B00017E12E2A15E12F2A13D0295080092E5E2E
:1002C0000EE2010E2F5E0BE22F2A295080092E2606
:1002D0002A502D26E9E32E2AE7E12F2AE5D70380CD
:1002E000302E01D00BD0D8902C362D362E362F360E
:1002F000D8900336023601363136BAD731A006D04F
:10030000D890013202320332313202D0000635E099
:1003100031BE1ED0D8902C362D362E362F362B508F
:100320002C5E07E2010E2D5E04E22E5E02E22F5EDD
:100330001AE32A502D5E05E2010E2E5E02E22F5EC8
:1003400012E3295080092E5E03E2010E2F5E0BE3BB
:10035000032A09E1022A07E1012A05E1002A0DE04A
:1003600001320232033225C030F02950301A30AE4B
:1003700002D0018E06D0019E04D0006A016A026A92
:10038000036AF2EF04F03150D8B471D0006E3550EA
:10039000D8B46DD0002604E3810E002668E204D0B4
:1003A0007F0E005E64E363E032C039F03650391AE4
:1003B000328E368E34503802F4CF3BF03350370251
:1003C000F4CF03F0F3CF3AF03802F3503B26F45069
:1003D0003A22000E032234503702F3503B26F450E9
:1003E0003A22000E026A0322022232503802F350EF
:1003F0003A26F4500322000E022232503702F35004
:100400000326F4500222000E016A01223450360203
:10041000F3503A26F4500322000E022201223350F8
:100420003602F3500326F4500222000E012232500D
:100430003602F3500226F4500122002A01BE05D0F4
:100440003A360336023601360006000E3AAE0AD0BE
:10045000032A02220122015005E1025003E1035068
:1004600001E1002A39BE018E39AE019E04D0006A36
:10047000016A026A036A1200020E375E0BE3EA6A3F
:10048000370EE96EEF5006E0020E006E002EFED72A
:10049000EF2EFAD757EF02F096908D90355202E189
:1004A0008D9001D08D809690640E376EE5D7969230
:1004B0008D9236C037F055DE1200332C01D003D0B8
:1004C000C00E346E02D0800E346E010E325C3426C3
:1004D000356A34C036F0E0DF91EF02F031500C0A9B
:1004E00007E0060A0DE0070A0BE0050A0FE013D04B
:1004F000356A010E366ED0DF020E326E1EDE11D06E
:10050000010E326E020E336ED8D70BD0356A100E44
:10051000366EC2DF06D0010E356E31C036F0BCDF5C
:1005200000D01200EACF2CF0E9CF2BF025AE08D096
:100530002B8E2BA82B2A241E251E242AD8B4252A2C
:100540002538F009276E2726E20F286E320F2A6E13
:1005500025500F0B282628262A26E90F296E292642
:10056000292624380F0B29262A2629362A362A1E20
:100570002A3624500F0B2A262736070E266E0A0E1F
:1005800029062A26FDE328062926FDE32706282634
:10059000FDE326062726FDE3EA6A260EE96E070E2E
:1005A0002B142B9CE9062B1407E12BB8E92A2BB856
:1005B00003D0200E006E1CD0E9262A0EE95CD8B4C8
:1005C0002B8CEF50006E08E12BBC06D02BB81BD053
:1005D0002BB602D0200E0BD02BAE06D02D0E006E07
:1005E000ED502B9C2B9E04D02B862B98300E002692
:1005F000EACF25F0E9CF24F000C031F06FDF25C04D
:10060000EAFF24C0E9FFEE502BACD7D712003150DF
:10061000B608316E036A32C035F0328ED89032326D
:10062000333234320332023201320032312EF6D705
:1006300035AE0BD0001E011E021E031E002AD8B4C8
:10064000012AD8B4022AD8B4032A95EF03F0D8B20D
:1006500003D0EA6A390EE96E006A016A026A036A27
:10066000396A3A6A3B6A3C6A38503710361035109E
:100670002CE0200E3D6ED89031363236333634368B
:1006800039363A363B363C3638503C5C08E1375018
:100690003B5C05E136503A5C02E13550395C0FE3D2
:1006A0003550395E3650D8A0363C3A5E3750D8A027
:1006B000373C3B5E3850D8A0383C3C5ED880003692
:1006C0000136023603363D2ED6D739C0EFFF3AC089
:1006D000ECFF3BC0ECFF3CC0ECFF1200E950296E80
:1006E00028502B6E19E027C034F026C033F025C007
:1006F00032F024C031F0386A376A200E366E820E2E
:10070000356E41DE03C027F002C026F001C025F09F
:1007100000C024F02B2EE7D727C034F026C033F0DA
:1007200025C032F024C031F072D703C027F002C0D8
:1007300026F001C025F000C024F027AE0DD0290618
:10074000298A241E251E261E271E242AD8B4252ABF
:10075000D8B4262AD8B4272A3B0E306E9A0E2F6EB4
:10076000CA0E2E6E2D6A0A0E2B6E2850D8B4292A76
:10077000D882EA6A240EE96E27C034F026C033F02E
:1007800025C032F024C031F030C038F02FC037F02F
:100790002EC036F02DC035F05ADF015000520FE167
:1007A00028282B5C0CE029500CE00F0B2B5C01E09F
:1007B00037E229BE35D029BC04D0200E2DD0200E22
:1007C000291629AA0CD0299A2850D8A42906005005
:1007D000296E2D0E316E82DE2950006E296A285056
:1007E0002B5C0AE10050296E2E0E316E77DE295007
:1007F000006E200E2916000E300E29AA0DD0299A5F
:100800002850D8A429060050296E2D0E316E66DEC0
:100810002950006E296A300E002600C031F05EDEDD
:10082000D89230C034F02FC033F02EC032F02DC03B
:1008300031F0386A376A366A0A0E356E08DF03C04F
:1008400030F002C02FF001C02EF000C02DF02B2E92
:100850008FD731EF05F02750016A265C03E226C0EE
:1008600000F00CD0006A080E286E2636003627509D
:10087000005CD8B0006E0136282EF7D71200200E8B
:1008800021A8300E226E20C000F020AE07D0001E3E
:10089000002A00C020F02D0E226E218E015020C0B3
:1008A00026F0640E276ED7DF00C020F0300E012442
:1008B000236E20C026F00A0E276ECDDF300E0024F6
:1008C000256E300E0124246E22C000F021A602D035
:1008D00021AE219421B80BD021AE22D021B420D05A
:1008E00000C023F021B21CD000C024F019D0300E7B
:1008F000235C16E100C023F0200E226E21A604D056
:100900002194218221AE2192300E245C09E100C0A5
:1009100024F0200E236E21A6F7D7219221AE21903C
:1009200021A403D022C031F0D9DD21A203D023C0FD
:1009300031F0D4DD21A003D024C031F0CFDD25C0BB
:1009400031F0CCDD3CEF05F0F86AD09E078EEA6A04
:10095000E96A400EAF6EA20EAC6E900EAB6E94883C
:10096000949A94968B96C180C182C184C196196A6B
:100970001A6A1B6A1C6A1D6A1E6A1F6A97EF00F0DA
:1009800000D4F19E640E326E9DEC00F0F292F09075
:10099000F288F18CF086F18AC00EF21219D41AC0D6
:1009A00025F019C024F01DDC00C020F001C021F0AA
:1009B00002C022F003C023F01EC025F01DC024F0A9
:1009C00010DC23C027F022C026F021C025F020C073
:1009D00024F003C02BF002C02AF001C029F000C0AF
:1009E00028F023D400C020F001C021F002C022F082
:1009F00003C023F003C034F002C033F001C032F072
:100A000000C031F0386A376A340E366E870E356EA4
:100A1000BADC00C020F001C021F002C022F003C007
:100A200023F00C0E316E5ADD500E316E57DD100E74
:100A3000E96E1AC025F019C024F074DD200E316E65
:100A40004DDD410E316E4ADD890EE96E23C027F07F
:100A500022C026F021C025F020C024F0020E286E0E
:100A60003DD60A0E316E3ADD5A0E316E37DD1FC0AB
:100A700020F01F0E216E03D7200E316E2FDD6D0E7C
:100A8000316E2CDD100EE96E1CC025F01BC024F069
:100A900049DD200E316E22DD4D0E316E1FDD100E50
:100AA000E96E1EC025F01DC024F03CDD020E206E54
:100AB000FA0E326E9DEC00F0202EFAD770D70300AC
:020000040030CA
:0E00000000260E0E000181000FC00FE00F4021
:00000001FF
;PIC18F452
;CRC=8ED2  CREATED="28-mar-13 12:03"
