:100000002500020A64006E009F0C2D00FF0C3000DA
:100010006B006C001004100206000604020C0200C3
:1000200070051002060066071A0A90051002060005
:100030008606990A610001022E0243071B0A8D0001
:100040004306240A03061B0A0F02AF02000F4306F1
:10005000330A010F4306700A030F4306750A010FA6
:100060004306930A930A7005100206006606510AB9
:100070009005100206008607510A100410020600BF
:1000800006043004100206002605AB024306AC024B
:10009000030C27000C0287000306500A6C006B005B
:1000A0006F0A90051002060086066F0A700510029E
:1000B000060066076F0A10041002060006053004E9
:1000C0001002060026050B024306EC00EB000B02B3
:1000D0000C0143076F0A030C2C00FF0C2B00990A3C
:1000E0003004100206002604990A7005100206006A
:1000F0006606840A9005100206008607840A10042A
:10010000100206000605920A9005100206008606F7
:10011000920A7005100206006607920A1004100287
:1001200006000604990A30041002060026056F0036
:10013000990A0606AC0A2606AC0AA606AC0AFE0C0C
:100140008B004307AC0A030C8C004307AC0AB004D5
:1001500010020600A605B20AA607B20AB0041002F1
:080160000600A604100A0300CA
:021FFE00EA0FE8
:00000001FF
;PIC12C508A
;CRC=4204  CREATED="28-mar-13 08:25"
