:10000000E8EF00F00C456E7669616E646F20300099
:100010000A4572726F00EA6A0D0EE96EEF500DE04C
:100020000A0E016E006A002EFED7012EFBD75F0E6E
:10003000006E002EFED7EF2EF3D712000900F55206
:100040000DE0F6CF07F0F7CF08F0F5509EA8FED7E9
:10005000AD6E07C0F6FF08C0F7FFF0D71200C69ECE
:100060009E960DC0C9FF020EC6BE05D09EA6FED745
:10007000000EC5BC010E016E12000C80C580C5B01B
:10008000FED70BC00DF0EBDF01500C9001B00C80DF
:10009000C584C5B4FED70A0E0D6EBDDF000E0CB0D0
:1000A000010E016E67EF00F0C69CC586C5B6FED78F
:1000B00000B0C59A00A0C58AC588C5B8FED7C9CF0B
:1000C00001F01200096A0A6A07C00BF0D6D7015284
:1000D00005E0FF0E016E026E26D025D0C580C5B0AA
:1000E000FED707C00DF0BBDF08C00DF0B8DFC5823A
:1000F000C5B2FED7010E07240B6E0D6EB0DF010EE8
:10010000006ED2DF01C009F0010E006ECDDF01C02C
:100110000AF0C584C5B4FED709C003F00AC001F0D7
:1001200009C002F000D011EF01F0EACF0FF0E9CFE3
:100130000EF00838F0090A6E0A26E20F0B6E320F35
:100140000D6E08500F0B0B260B260D26E90F0C6EBB
:100150000C260C2607380F0B0C260D260C360D36F8
:100160000D1E0D3607500F0B0D260A36070E096EB1
:100170000A0E0C060D26FDE30B060C26FDE30A060F
:100180000B26FDE309060A26FDE3EA6A090EE96E7D
:10019000070E0E140E9CE9260D0EE95CD8B40E8CE9
:1001A000EF50006E08E10EBC06D00EB80CD00EB6B3
:1001B00002D0200E03D00E860E98300E002600507E
:1001C0009EA8FED7AD6EEE500EACE6D72BEF01F039
:1001D000F86AD09EEA6AE96A330EAF6EA20EAC6E80
:1001E000900EAB6E94869488350EC86E280EC66E3F
:1001F000C78EC79CC180C182C184C196046A056A4A
:10020000020E076EFA0E0D6E06DF072EFBD7068074
:10021000040EF66E000EF76E11DF076A330E086EDD
:1002200051D702C005F001C004F0043C03D0053CE6
:1002300001D00CD00A0E9EA8FED7AD6E100EE96E4E
:1002400005C008F004C007F070D705D0100EF66E98
:10025000000EF76EF3DE0C0E076EFA0E0D6EDBDE8F
:0C026000072EFBD7D5D7000E016E03005F
:020000040030CA
:0E00000000260D0E000180000FC00FE00F4023
:00000001FF
;PIC18F452
;CRC=7817  CREATED="17-jan-13 11:46"
