:040000008FEF01F08D
:08000800046ED8CF05F0E0CF33
:1000100006F00001E9CF0CF0EACF07F0E1CF08F0DD
:10002000E2CF09F0D9CF0AF0DACF0BF0F3CF12F01C
:10003000F4CF13F0FACF14F0F5CF15F0F6CF16F099
:10004000F7CF17F000C00EF001C00FF002C010F0A3
:1000500003C011F0F2A830EF00F0F2B2ACEF00F004
:10006000F0A636EF00F0F0B0B9EF00F09DA63CEF3F
:1000700000F09EB66EEF00F00EC000F00FC001F071
:1000800010C002F011C003F00CC0E9FF07C0EAFF86
:10009000078E08C0E1FF09C0E2FF0AC0D9FF0BC00C
:1000A000DAFF12C0F3FF13C0F4FF14C0FAFF15C04B
:1000B000F5FF16C0F6FF17C0F7FF045006C0E0FFBB
:1000C00005C0D8FF1000C9503CC0C9FFC6889E9625
:1000D000C7B0FED7016AC6B8012A1200C7BA03D05A
:1000E000316AC7B4318E3150312A2C6E2C507F08C2
:1000F0001EE3C69C9EA6FED7C950C6882D6E2C2C2A
:1001000004D02E6A2DC02EF011D02C50020808E128
:100110002F6A2DC02FF02EC020F02FC01FF006D068
:100120002C50030803E1306A2DC030F012D02C505F
:1001300080080FE12E5206E11AC03BF01AC03CF0D5
:10014000C2DF07D02E2C05D019C03BF019C03CF0FF
:10015000BADF9E963CEF00F0F29281A804D0212AEB
:10016000D8B4222A03D0232AD8B4242AF2923CEF0E
:1001700000F0F090286A276A28C024F027C023F0F6
:1001800024C022F023C021F01C6A1B6A1CC01AF094
:100190001BC019F0D76AD66AF0903CEF00F0EACFA6
:1001A0003AF0E9CF39F03338F009356E3526E20FF1
:1001B000366E320F386E33500F0B36263626382601
:1001C000E90F376E3726372632380F0B3726382699
:1001D00037363836381E383632500F0B382635361B
:1001E000070E346E0A0E37063826FDE3360637262C
:1001F000FDE335063626FDE334063526FDE3EA6ADF
:10020000340EE96E070E3914399CE926380EE95C84
:10021000D8B4398CEF50006E08E139BC06D039B83B
:100220000CD039B602D0200E03D039863998300E62
:10023000002600509EA8FED7AD6EEE5039ACE6D732
:100240001200EACF3AF0E9CF39F033AE08D0398E58
:1002500039A8392A321E331E322AD8B4332A333809
:10026000F009356E3526E20F366E320F386E335098
:100270000F0B362636263826E90F376E37263726F7
:1002800032380F0B3726382637363836381E383690
:1002900032500F0B38263536070E346E0A0E3706ED
:1002A0003826FDE336063726FDE335063626FDE320
:1002B00034063526FDE3EA6A340EE96E070E39147A
:1002C000399CE906391407E139B8E92A39B803D06D
:1002D000200E006E1CD0E926380EE95CD8B4398CAB
:1002E000EF50006E08E139BC06D039B814D039B6E9
:1002F00002D0200E0BD039AE06D02D0E006EED5080
:10030000399C399E04D039863998300E0026005029
:100310009EA8FED7AD6EEE5039ACDED71200F86A5B
:10032000D09E078EEA6AE96AB8861A0EAF6E060E8C
:10033000B06EA60EAC6E900EAB6E94869488C86AB2
:10034000360EC66EC580030E316E000E7E6EC198ED
:10035000C19A7F50E00B7F6E799A79987A6A7B6AAE
:10036000196A1A6A1B6A1C6A1D6A1E6A1F6A206A59
:10037000216A226A236A246A256A266A276A286A09
:10038000296A2A6A2B902C6A2D6A2E6A2F6A306A93
:10039000D76AD66AA00ED56E010E7C6EF19EF292DF
:1003A000F090F288F19CF086F19AC00EF212D650CD
:1003B000276ED7CF28F021502724326E22502820D4
:1003C000336E23503224016E24503320036E0150CB
:1003D0001D5C04E103501E5CD8B467D02150272473
:1003E000326E22502820336E23503224016E245066
:1003F000332001C01DF01E6E2A50285C08E303E183
:100400002750295C04E228C02AF027C029F0265092
:10041000225C09E303E12150255C05E222C026F0BD
:1004200021C025F00BD02650245C08E303E12350C3
:10043000255C04E224C026F023C025F00C0E9EA803
:10044000FED7AD6E100EE96E28C033F027C032F033
:10045000A6DE200E9EA8FED7AD6E100EE96E2AC055
:1004600033F029C032F09BDE0A0E9EA8FED7AD6E97
:10047000100EE96E22C033F021C032F0E2DE200E11
:100480009EA8FED7AD6E100EE96E24C033F023C0D7
:1004900032F0D7DE200E9EA8FED7AD6E100EE96EAC
:0E04A00026C033F025C032F0CCDE81D7030039
:020000040030CA
:0E00000000C61E1E008F81000FC00FE00F40D3
:00000001FF
;PIC18F45K20
;CRC=9E94  CREATED="02-ago-13 08:55"
