:100000002500280A030A6800690067006A001302D5
:1000100043070D0A12024306270A100C340003049A
:100020007003710367036A0313028A0043071A0A05
:10003000120287000307230A1202A7000307EA003F
:100040001302AA00030568036903F4020F0A6F0A8A
:1000500064006E009F0C2D00FF0C2F006B006C00E5
:100060000F040F0206000604020C02006F050F02C7
:1000700006006607400A8F050F02060086067C0A06
:10008000610001022E024307410A8D0043064A0A1D
:100090000306410AAB024306AC020B02030E270023
:1000A0006A0007020A0143075A0A0F040F020600FA
:1000B00006057C0A0B02010E27006A0007020A01EE
:1000C0004307670A2F040F02060026057C0A0C026C
:1000D00031000B0230007300030C3200020A0702E9
:1000E0000A014307780A2F040F02060026047C0A3F
:0C00F0000F040F0206000604360A03008D
:021FFE00EA0FE8
:00000001FF
;PIC12C508A
;CRC=3E0E  CREATED="27-mar-13 12:04"
