:100000002CEF01F0254C7520202D20202564200A9E
:100010000D00EA6A0A0EE96EEF500EE0130E016E53
:10002000006A002EFED7012EFBD7730E006E002E45
:10003000FED70000EF2EF2D71200929A899A94967A
:100040008B96949A8B9A94988B984CEF01F00B5066
:10005000100805E00C6E09360A360C2EFCD7948881
:10006000949A94968B960BC00CF00AAE8B9A0ABEAB
:100070008B8A09360A36050E0D6E0D2EFED78B863D
:100080000136023682A8019082B801808B960C2E30
:10009000ECD753EF01F0EACF14F0E9CF13F00D38AD
:1000A000F0090F6E0F26E20F106E320F126E0D5018
:1000B0000F0B102610261226E90F116E112611269D
:1000C0000C380F0B1126122611361236121E12365C
:1000D0000C500F0B12260F36070E0E6E0A0E11066D
:1000E0001226FDE310061126FDE30F061026FDE3A0
:1000F0000E060F26FDE3EA6A0E0EE96E070E1314D4
:10010000139CE926120EE95CD8B4138CEF50006EF4
:1001100008E113BC06D013B80CD013B602D0200EE1
:1001200003D013861398300E002600509EA8FED7E9
:10013000AD6EEE5013ACE6D779EF01F00900F6CFC3
:100140000DF0F7CF0EF0F5509EA8FED7AD6E0DC0A6
:10015000F6FF0EC0F7FF0C2EF1D780EF01F0135021
:10016000016A125C03E212C000F00CD0006A080EB3
:10017000146E123600361350005CD8B0006E013693
:10018000142EF7D71200200E0DA8300E0E6E0CC0E4
:1001900000F00CAE07D0001E002A00C00CF02D0E9F
:1001A0000E6E0D8E01500CC012F0640E136ED7DF70
:1001B00000C00CF0300E01240F6E0CC012F00A0EBD
:1001C000136ECDDF300E0024116E300E0124106E40
:1001D0000EC000F00DA602D00DAE0D940DB80BD0E0
:1001E0000DAE22D00DB420D000C00FF00DB21CD047
:1001F00000C010F019D0300E0F5C16E100C00FF0F7
:10020000200E0E6E0DA604D00D940D820DAE0D9233
:10021000300E105C09E100C010F0200E0F6E0DA62C
:10022000F7D70D920DAE0D900DA404D00E509EA8E0
:10023000FED7AD6E0DA204D00F509EA8FED7AD6EB6
:100240000DA004D010509EA8FED7AD6E11509EA8F0
:10025000FED7AD6E85EF01F0F86AD09EEA6AE96AD2
:10026000B8861A0EAF6E060EB06EA60EAC6E900E6D
:10027000AB6E9488949A94968B96000E7E6EC1987D
:10028000C19A7F50E00B7F6E799A79987A6A7B6A7F
:10029000640E0A6EBEDED1D6929A899A0A6A096AFB
:1002A000100E0B6ED4D6015002C007F001C006F04C
:1002B000929A898A07300A6E0630096E0A3209322C
:1002C0000A3209320A3209320A3209320A32093252
:1002D000030E0A160650060B006E036A0050D890F3
:1002E00000300B6E100EE96E0AC00DF009C00CF064
:1002F000D2D6070EF66E000EF76E050E0C6E1ED7E8
:100300000BC00CF01F0E0D6E3ED7200E9EA8FED720
:10031000AD6E0A0E9EA8FED7AD6E0D0E9EA8FED73E
:10032000AD6E020E096EFA0E0A6E73DE092EFBD751
:04033000B3D703003C
:020000040030CA
:0E00000000C61E1E008F81000FC00FE00F40D3
:00000001FF
;PIC18F45K20
;CRC=D82C  CREATED="22-mar-13 14:31"
