:0400000094EF01F088
:08000800046ED8CF05F0E0CF33
:1000100006F00001E9CF0CF0EACF07F0E1CF08F0DD
:10002000E2CF09F0D9CF0AF0DACF0BF0F3CF12F01C
:10003000F4CF13F0FACF14F0F5CF15F0F6CF16F099
:10004000F7CF17F000C00EF001C00FF002C010F0A3
:1000500003C011F0F2A830EF00F0F2B257EF00F059
:100060000EC000F00FC001F010C002F011C003F08C
:100070000CC0E9FF07C0EAFF078E08C0E1FF09C016
:10008000E2FF0AC0D9FF0BC0DAFF12C0F3FF13C0B2
:10009000F4FF14C0FAFF15C0F5FF16C0F6FF17C035
:1000A000F7FF045006C0E0FF05C0D8FF1000F29231
:1000B00081A804D01D2AD8B41E2A04D01D50D8B45B
:1000C0001E061D06F29230EF00F0EACF2BF0E9CFCA
:1000D0002AF02438F009266E2626E20F276E320F0A
:1000E000296E24500F0B272627262926E90F286E74
:1000F0002826282623380F0B282629262836293695
:10010000291E293623500F0B29262636070E256E69
:100110000A0E28062926FDE327062826FDE32606E3
:100120002726FDE325062626FDE3EA6A250EE96E6D
:10013000070E2A142A9CE926290EE95CD8B42A8CD9
:10014000EF50006E08E12ABC06D02AB80CD02AB6BF
:1001500002D0200E03D02A862A98300E00260050A6
:100160009EA8FED7AD6EEE502AACE6D712002A50FC
:10017000016A295C03E229C000F00CD0006A080E75
:100180002B6E293600362A50005CD8B0006E01363E
:100190002B2EF7D71200200E24A8300E256E23C078
:1001A00000F023AE08D0001E002A00C023F02D0E60
:1001B000256E248E2480015023C029F0640E2A6EFF
:1001C000D6DF00C023F0300E0124266E23C029F0B4
:1001D0000A0E2A6ECCDF300E0024286E300E012469
:1001E000276E25C000F0300E265C04E0248224BE79
:1001F000248412D025C026F0200E256E300E275CF8
:1002000004E0248024BE248207D0D8A4248004E102
:1002100026C027F0200E266E24B405D024B207D0C5
:1002200024B009D00CD025509EA8FED7AD6E265024
:100230009EA8FED7AD6E27509EA8FED7AD6E285063
:100240009EA8FED7AD6E18EF02F0EACF2BF0E9CFF3
:100250002AF024AE08D02A8E2AA82A2A231E241E79
:10026000232AD8B4242A2438F009266E2626E20F41
:10027000276E320F296E24500F0B2726272629269A
:10028000E90F286E2826282623380F0B2826292632
:1002900028362936291E293623500F0B29262636C3
:1002A000070E256E0A0E28062926FDE327062826B6
:1002B000FDE326062726FDE325062626FDE3EA6A5A
:1002C000250EE96E070E2A142A9CE9062A1407E176
:1002D0002AB8E92A2AB803D0200E006E1CD0E926DD
:1002E000290EE95CD8B42A8CEF50006E08E12ABCD4
:1002F00006D02AB814D02AB602D0200E0BD02AAECF
:1003000006D02D0E006EED502A9C2A9E04D02A861F
:100310002A98300E002600509EA8FED7AD6EEE50F3
:100320002AACDED723EF02F0F86AD09E078EEA6A85
:10033000E96AB8861A0EAF6E060EB06EA60EAC6EE7
:10034000900EAB6E000E7E6EC198C19A7F50E00B8E
:100350007F6E799A79987A6A7B6A196A1A6A1B6A37
:100360001C6A1D6A1E6A1F6A206A21902192D76A40
:10037000D66AA00ED56E010E7C6EF19EF292F288C6
:10038000F18CC00EF212958083B009D0958283A2C1
:1003900006D0D6501B24196ED7501C201A6E958299
:1003A00083B209D0958083A006D0D6501B5C196E0D
:1003B000D7501C581A6E958083A00CD0958283A2CA
:1003C00009D021A007D0D76AD66A1AC01CF019C07C
:1003D0001BF001D021801D501F5C03E11E50205CEA
:1003E00032E01EC020F01DC01FF0000E21B2010E31
:1003F000226E0C0E9EA8FED7AD6E100EE96E1AC0CE
:1004000024F019C023F061DE200E9EA8FED7AD6E49
:10041000100EE96E1CC024F01BC023F056DE200E27
:100420009EA8FED7AD6E22C023F0180E246EB3D660
:10043000200E9EA8FED7AD6E100EE96E1EC024F0F1
:0A0440001DC023F002D79FD7030070
:020000040030CA
:0E00000000C61E1E008F81000FC00FE00F40D3
:00000001FF
;PIC18F45K20
;CRC=2DF2  CREATED="01-ago-13 15:43"
