:0400000026EF02F0F5
:08000800046ED8CF05F0E0CF33
:1000100006F00001E9CF0CF0EACF07F0E1CF08F0DD
:10002000E2CF09F0D9CF0AF0DACF0BF0F3CF12F01C
:10003000F4CF13F0FACF14F0F5CF15F0F6CF16F099
:10004000F7CF17F000C00EF001C00FF002C010F0A3
:1000500003C011F0F2A830EF00F0F2B25DEF00F053
:10006000F0A636EF00F0F0B07FEF00F00EC000F029
:100070000FC001F010C002F011C003F00CC0E9FF86
:1000800007C0EAFF078E08C0E1FF09C0E2FF0AC00F
:10009000D9FF0BC0DAFF12C0F3FF13C0F4FF14C086
:1000A000FAFF15C0F5FF16C0F6FF17C0F7FF0450A2
:1000B00006C0E0FF05C0D8FF1000F292938481A42F
:1000C00004D0192AD8B41A2A0CD0195202E11A52B3
:1000D00005E01950D8B41A06190603D0030E1A6E9B
:1000E00019681C501A5C08E303E119501B5C04E218
:1000F0001AC01CF019C01BF0F29236EF00F0F0901D
:100100001A6A196A1D2AF09036EF00F00C50756CCF
:10011000736F733A20254C750A5A65726F733A25CE
:1001200064204D61783A254C7500939E8A8E939C8D
:100130008A8C3FEF02F0EA6A280EE96EEF500EE07B
:100140000C0E016E006A002EFED7012EFBD7F70EB3
:10015000006E002EFED700D0EF2EF2D71200956A67
:100160002DC08CFF210E006E002EFED796928D8240
:10017000210E006E002EFED796928D921200956A87
:100180008C6A96908D9096928D920F0E286ED3DF8A
:10019000010E1E6E1E50030808E3300E2D6EDFDFC9
:1001A000050E286EC8DF1E2AF5D7380E2D6ED7DF54
:1001B000010E2D6ED4DF010E286EBDDF0C0E2D6EEC
:1001C000CEDF060E2D6ECBDF40EF02F0939C8A8CC3
:1001D000320E286EB0DF939E8A9E4DEF02F0020E23
:1001E0002D5E0BE3EA6A2D0EE96EEF5006E0020E7B
:1001F000006E002EFED7EF2EFAD70AEF01F0969090
:100200008D902B5202E18D9001D08D809690640EDE
:100210002D6EE5D796928D922CC02DF0A0DF1200A6
:10022000292C01D003D0C00E2A6E02D0800E2A6E77
:10023000010E285C2A262B6A2AC02CF0E0DF44EF4E
:1002400001F027500C0A07E0060A0DE0070A0BE050
:10025000050A0FE013D02B6A010E2C6ED0DF020EC0
:10026000286E69DF11D0010E286E020E296ED8D7D4
:100270000BD02B6A100E2C6EC2DF06D0010E2B6E37
:1002800027C02CF0BCDF00D012000900F6CF1FF011
:10029000F7CF20F0F5CF27F0D4DF1FC0F6FF20C046
:1002A000F7FF1E2EF2D71200EACF26F0E9CF25F095
:1002B0001F38F009216E2126E20F226E320F246EC4
:1002C0001F500F0B222622262426E90F236E2326F9
:1002D00023261E380F0B2326242623362436241EDD
:1002E00024361E500F0B24262136070E206E0A0ED0
:1002F00023062426FDE322062326FDE321062226EB
:10030000FDE320062126FDE3EA6A200EE96E070ED2
:100310002514259CE926240EE95CD8B4258CEF50E1
:10032000006E08E125BC06D025B813D025B602D052
:10033000200E03D025862598300E0026EACF1FF028
:10034000E9CF1EF000C027F07CDF1FC0EAFF1EC00F
:10035000E9FFEE5025ACDFD712002550016A245C7E
:1003600003E224C000F00CD0006A080E266E24368A
:1003700000362550005CD8B0006E0136262EF7D727
:100380001200200E1FA8300E206E1EC000F01EAE00
:1003900007D0001E002A00C01EF02D0E206E1F8EFA
:1003A00001501EC024F0640E256ED7DF00C01EF081
:1003B000300E0124216E1EC024F00A0E256ECDDF02
:1003C000300E0024236E300E0124226E20C000F077
:1003D0001FA602D01FAE1F941FB80BD01FAE22D095
:1003E0001FB420D000C021F01FB21CD000C022F0EA
:1003F00019D0300E215C16E100C021F0200E206ED5
:100400001FA604D01F941F821FAE1F92300E225CC5
:1004100009E100C022F0200E216E1FA6F7D71F921F
:100420001FAE1F901FA403D020C027F00ADF1FA219
:1004300003D021C027F005DF1FA003D022C027F082
:1004400000DF23C027F0FDDE67EF02F0F86AD09EE0
:10045000078EEA6AE96A400EAF6EA20EAC6E900E8D
:10046000AB6E9488949A94968B96C180C182C18415
:10047000C196196A1A6A1B6A1C6A1D6A56D67FD60B
:10048000F19E640E286E57DEF292F090F288F18CA5
:10049000F086F18AC00EF21299D60C0EF66E010E9D
:1004A000F76E090E1E6EF1DE100EE96E1AC01FF017
:1004B00019C01EF0F9DE180EF66E010EF76E070E6B
:1004C0001E6EE3DE1DC01EF01F0E1F6E5AD7210EDA
:1004D000F66E010EF76E050E1E6ED7DE100EE96E7B
:1004E0001CC01FF01BC01EF0DFDE020E1E6EFA0ED7
:0C04F000286E21DE1E2EFBD7D0D70300A3
:020000040030CA
:0E00000000260E0E000181000FC00FE00F4021
:00000001FF
;PIC18F452
;CRC=E03D  CREATED="28-mar-13 09:12"
