:1000000028EF01F00C254C7520202D2020256400C0
:100010000C50100805E00D6E0A360B360D2EFCD77D
:100020009488949A94968B960CC00DF00BAE8B9A94
:100030000BBE8B8A0A360B36050E0E6E0E2EFED7C1
:100040008B8600000136023682A8019082B80180BA
:100050008B960D2EEBD734EF00F0929A899A0B6AAB
:100060000A6A100E0C6ED4D7015002C009F001C00C
:1000700008F0929A898A08C001F009C002F04BEF9B
:1000800001F0EACF13F0E9CF12F00C38F0090E6E50
:100090000E26E20F0F6E320F116E0C500F0B0F2653
:1000A0000F261126E90F106E102610260B380F0BA5
:1000B0001026112610361136111E11360B500F0B5B
:1000C00011260E36070E0D6E0A0E10061126FDE3E0
:1000D0000F061026FDE30E060F26FDE30D060E2685
:1000E000FDE3EA6A0D0EE96E070E1214129CE92672
:1000F000110EE95CD8B4128CEF50006E08E112BC0E
:1001000006D012B80CD012B602D0200E03D0128640
:100110001298300E002600509EA8FED7AD6EEE500D
:1001200012ACE6D772EF01F00900F6CF0CF0F7CF72
:100130000DF0F5509EA8FED7AD6E0CC0F6FF0DC0B9
:10014000F7FF0B2EF1D779EF01F01250016A115C25
:1001500003E211C000F00CD0006A080E136E1136D5
:1001600000361250005CD8B0006E0136132EF7D75F
:100170001200200E0CA8300E0D6E0BC000F00BAE5E
:1001800008D0001E002A00C00BF02D0E0D6E0C8E44
:100190000C8001500BC011F0640E126ED6DF00C04F
:1001A0000BF0300E01240E6E0BC011F00A0E126E11
:1001B000CCDF300E0024106E300E01240F6E0DC007
:1001C00000F0300E0E5C04E00C820CBE0C8412D0E9
:1001D0000DC00EF0200E0D6E300E0F5C04E00C8092
:1001E0000CBE0C8207D0D8A40C8004E10EC00FF026
:1001F000200E0E6E0CB405D00CB207D00CB009D096
:100200000CD00D509EA8FED7AD6E0E509EA8FED706
:10021000AD6E0F509EA8FED7AD6E10509EA8FED7B3
:10022000AD6E7EEF01F0EA6A090EE96EEF500EE066
:10023000130E016E006A002EFED7012EFBD7730E3F
:10024000006E002EFED70000EF2EF2D783EF01F0F4
:10025000F86AD09EEA6AE96AB8861A0EAF6E060E90
:10026000B06EA60EAC6E900EAB6E9488949A949677
:100270008B96000E7E6EC198C19A7F50E00B7F6E08
:10028000799A79987A6A7B6A046A056A066A076AC3
:10029000929A898AE2D602C007F001C006F00730C0
:1002A000096E0630086E0932083209320832093206
:1002B00008320932083209320832030E0916065094
:1002C000060B006E036A0050D89000300A6E0C0EC8
:1002D0009EA8FED7AD6E100EE96E09C00CF008C0E6
:1002E0000BF0CFD6080EF66E000EF76E050E0B6EF5
:1002F0001BD70AC00BF0180E0C6E3BD7020E086E0F
:0E030000FA0E096E90D7082EFBD7C4D7030063
:020000040030CA
:0E00000000C61E1E008F81000FC00FE00F40D3
:00000001FF
;PIC18F45K20
;CRC=3EFB  CREATED="31-jul-13 11:27"
