:1000000017EF00F0EA6A050EE96EEF500EE0130EEE
:10001000016E006A002EFED7012EFBD7730E006E14
:10002000002EFED70000EF2EF2D738EF00F0F86A6E
:10003000D09EEA6AE96AB8861A0EAF6E060EB06EF6
:10004000A60EAC6E900EAB6E9488949A94968B9696
:10005000000E7E6EC198C19A7F50E00B7F6E799A38
:1000600079987A6A7B6A95908C70050E056ECAD76E
:08007000FAD7000E016E030037
:020000040030CA
:0E00000000C61E1E008F81000FC00FE00F40D3
:00000001FF
;PIC18F45K20
;CRC=1F50  CREATED="23-mar-13 11:57"
