:0400000057EF01F0C5
:08000800046ED8CF05F0E0CF33
:1000100006F00001E9CF0CF0EACF07F0E1CF08F0DD
:10002000E2CF09F0D9CF0AF0DACF0BF0F3CF12F01C
:10003000F4CF13F0FACF14F0F5CF15F0F6CF16F099
:10004000F7CF17F000C00EF001C00FF002C010F0A3
:1000500003C011F0F2A830EF00F0F2B25DEF00F053
:10006000F0A636EF00F0F0B064EF00F00EC000F044
:100070000FC001F010C002F011C003F00CC0E9FF86
:1000800007C0EAFF078E08C0E1FF09C0E2FF0AC00F
:10009000D9FF0BC0DAFF12C0F3FF13C0F4FF14C086
:1000A000FAFF15C0F5FF16C0F6FF17C0F7FF0450A2
:1000B00006C0E0FF05C0D8FF1000F2921B2AD8B49A
:1000C0001C2AF29236EF00F0F0901B2AD8B41C2ABA
:1000D000F09036EF00F0506F733A20256C750A0DE2
:1000E0000000F292F090F288F086C00EF212030E39
:1000F0001A6E71EF01F0EA6A200EE96EEF500EE021
:10010000140E016E006A002EFED7012EFBD7BF0E23
:10011000006E002EFED700D0EF2EF2D7120095848D
:100120001E9083A41E8095861E9283A61E821DC0EB
:100130001FF0000E1EB0010E216E000E1EB2010E49
:10014000211813E0640E206ED6DF1EA006D019A081
:1001500004D0010E1F6E199007D01EA205D019A061
:1001600003D0020E1F6E199005D019B003D019806C
:10017000030E1F6E1FC001F074EF01F095928C9278
:100180000A0E206EB8DF95908C80E1EF00F095901C
:100190008C900A0E206EAFDF95928C82E5EF00F016
:1001A00095908C9095928C92E9EF00F01EC01FF014
:1001B0001E50010A05E0030A07E0010A09E00FD01A
:1001C000DDD7010E1F6E0BD0E2D7020E1F6E07D0D7
:1001D000E7D7D76AD66ACF6ACE6A030E1F6E1FC0F2
:1001E00001F079EF01F00900F6CF1EF0F7CF1FF014
:1001F000F5509EA8FED7AD6E1EC0F6FF1FC0F7FFDC
:100200001D2EF1D788EF01F0EACF25F0E9CF24F0D9
:100210001E38F009206E2026E20F216E320F236E69
:100220001E500F0B212621262326E90F226E22269F
:1002300022261D380F0B2226232622362336231E84
:1002400023361D500F0B23262036070E1F6E0A0E75
:1002500022062326FDE321062226FDE32006212691
:10026000FDE31F062026FDE3EA6A1F0EE96E070E76
:100270002414249CE926230EE95CD8B4248CEF5086
:10028000006E08E124BC06D024B80CD024B602D0FD
:10029000200E03D024862498300E002600509EA8FD
:1002A000FED7AD6EEE5024ACE6D78FEF01F0F86AC2
:1002B000D09E078EEA6AE96AB886820EAF6E060E95
:1002C000B06EA60EAC6E900EAB6E000E7E6EC19838
:1002D000C19A7F50E00B7F6E799A79987A6A7B6A2F
:1002E00000D71AC01DF01BD701C01DF001C01EF0C1
:1002F0005DD701C01AF01A2C01D003D01A500208A1
:100300001DE1D60EF66E000EF76E050E1D6E6BD754
:10031000100EE96E1CC01EF01BC01DF075D70A0E32
:100320009EA8FED7AD6E0D0E9EA8FED7AD6E040E34
:100330001D6EFA0E206EDFDE1D2EFBD7D2D7000E0B
:04034000016E030047
:020000040030CA
:0E00000000C61E1E008F81000FC00FE00F40D3
:00000001FF
;PIC18F45K20
;CRC=8626  CREATED="26-ago-14 08:31"
