:1000000061EF01F054696D657220303A20256C75FE
:100010000A0D000054696D657220313A20256C7517
:100020000A0D0000446972656374696F6E3A202599
:10003000640A0D00EA6A0D0EE96EEF500EE0140E30
:10004000016E006A002EFED7012EFBD7BF0E006E98
:10005000002EFED700D0EF2EF2D7120093800B9027
:1000600081A00B8093820B9281A20B820AC00CF0BC
:10007000000E0BB0010E0E6E000E0BB2010E0E182C
:1000800012E0640E0D6ED6DF0BA005D004A003D0E5
:10009000010E0C6E06D00BA204D004A002D0020EFA
:1000A0000C6E049005D004B003D00480030E0C6ED7
:1000B0000CC001F086EF01F095928C920A0E0D6E45
:1000C000B9DF95908C807FEF00F095908C900A0EB0
:1000D0000D6EB0DF95928C8283EF00F095908C903E
:1000E00095928C9287EF00F00AC00BF00A50010A3B
:1000F00005E0030A07E0010A09E00FD0DDD7010E91
:100100000B6E0BD0E2D7020E0B6E07D0E7D7D76A83
:10011000D66ACF6ACE6A030E0B6E0BC001F08BEF6E
:1001200001F00900F6CF0CF0F7CF0DF0F5509EA8C6
:10013000FED7AD6E0CC0F6FF0DC0F7FF0B2EF1D74A
:100140001200EACF12F0E9CF11F00B38F0090D6E72
:100150000D26E20F0E6E320F106E0B500F0B0E2697
:100160000E261026E90F0F6E0F260F260A380F0BEA
:100170000F2610260F361036101E10360A500F0BA1
:1001800010260D36070E0C6E0A0E0F061026FDE324
:100190000E060F26FDE30D060E26FDE30C060D26CA
:1001A000FDE3EA6A0C0EE96E070E1114119CE926B4
:1001B000100EE95CD8B4118CEF50006E08E111BC50
:1001C00006D011B80CD011B602D0200E03D0118683
:1001D0001198300E002600509EA8FED7AD6EEE504E
:1001E00011ACE6D712001250016A115C03E211C093
:1001F00000F00CD0006A080E136E11360036125053
:10020000005CD8B0006E0136132EF7D71200200E16
:100210000CA8300E0D6E0BC000F00BAE08D0001E07
:10022000002A00C00BF02D0E0D6E0C8E0C800150BC
:100230000BC011F0640E126ED6DF00C00BF0300E52
:1002400001240E6E0BC011F00A0E126ECCDF300EC0
:100250000024106E300E01240F6E0DC000F0300E21
:100260000E5C04E00C820CBE0C8412D00DC00EF0AB
:10027000200E0D6E300E0F5C04E00C800CBE0C8264
:1002800007D0D8A40C8004E10EC00FF0200E0E6E33
:100290000CB405D00CB207D00CB009D00CD00D5066
:1002A0009EA8FED7AD6E0E509EA8FED7AD6E0F5025
:1002B0009EA8FED7AD6E10509EA8FED7AD6EDEEFA5
:1002C00001F0F86AD09EEA6AE96AB886820EAF6EDB
:1002D000060EB06EA60EAC6E900EAB6E000E7E6E6D
:1002E000C198C19A7F50E00B7F6E799A79987A6AAB
:1002F0007B6AD76AD66ACF6ACE6AB80ED56E870E89
:10030000CD6E030E056E05C00AF0A8D601C005F03B
:1003100005C00AF0E9D6052C01D003D0055002082B
:1003200055E1D650066ED7CF07F0CE50086ECFCF2E
:1003300009F004920950075C05E303E10650085CEC
:1003400001E20482040EF66E000EF76E090E0B6ECB
:10035000E8DE100EE96E07C00BF006C00AF0F1DE11
:100360000A0E9EA8FED7AD6E0D0E9EA8FED7AD6EEE
:10037000140EF66E000EF76E090E0B6ED2DE100E26
:10038000E96E09C00BF008C00AF0DBDE0A0E9EA879
:10039000FED7AD6E0D0E9EA8FED7AD6E000E04B258
:1003A000010E0A6E240EF66E000EF76E0B0E0B6E2B
:1003B000B8DE0AC00BF0180E0C6E29D70A0E9EA8E4
:1003C000FED7AD6E0D0E9EA8FED7AD6E040E0A6E62
:1003D000FA0E0D6E2FDE0A2EFBD795D7000E016E9A
:0203E000030018
:020000040030CA
:0E00000000C61E1E008F81000FC00FE00F40D3
:00000001FF
;PIC18F45K20
;CRC=0A74  CREATED="25-ago-14 16:22"
