:04000000B8EF01F064
:08000800046ED8CF05F0E0CF33
:1000100006F00001E9CF0CF0EACF07F0E1CF08F0DD
:10002000E2CF09F0D9CF0AF0DACF0BF0F3CF12F01C
:10003000F4CF13F0FACF14F0F5CF15F0F6CF16F099
:10004000F7CF17F000C00EF001C00FF002C010F0A3
:1000500003C011F0F2A630EF00F0F2B057EF00F05D
:100060000EC000F00FC001F010C002F011C003F08C
:100070000CC0E9FF07C0EAFF078E08C0E1FF09C016
:10008000E2FF0AC0D9FF0BC0DAFF12C0F3FF13C0B2
:10009000F4FF14C0FAFF15C0F5FF16C0F6FF17C035
:1000A000F7FF045006C0E0FF05C0D8FF1000F29033
:1000B000020E006E002EFED70000936881502118BA
:1000C000206E936881CF21F020A814D09388000E71
:1000D00081B8010E526E938A000E81BA010E525CF5
:1000E00004E02E2AD8B42F2A04D02E50D8B42F06DC
:1000F0002E0615D020AA13D09388000E81B8010EC9
:10010000526E938A000E81BA010E525C04E12E2ACF
:10011000D8B42F2A04D02E50D8B42F062E06F29031
:1001200030EF00F00C546573746520456E636F64A6
:10013000657200000C506F733A2025346C640A55C8
:100140006C743A2025346C64202532640000090068
:10015000F5520DE0F6CF46F0F7CF47F0F5509EA8E8
:10016000FED7AD6E46C0F6FF47C0F7FFF0D7E0EF11
:1001700001F0EA6A470EE96EEF500DE00A0E016EDB
:10018000006A002EFED7012EFBD75F0E006E002EF8
:10019000FED7EF2EF3D712000900F6CF4AF0F7CFC3
:1001A0004BF0F5509EA8FED7AD6E4AC0F6FF4BC08F
:1001B000F7FF492EF1D71200EACF51F0E9CF50F006
:1001C0004AAE08D0508E50A8502A491E4A1E492ACD
:1001D000D8B44A2A4A38F0094C6E4C26E20F4D6ECC
:1001E000320F4F6E4A500F0B4D264D264F26E90F0A
:1001F0004E6E4E264E2649380F0B4E264F264E3653
:100200004F364F1E4F3649500F0B4F264C36070EB8
:100210004B6E0A0E4E064F26FDE34D064E26FDE3BD
:100220004C064D26FDE34B064C26FDE3EA6A4B0ED9
:10023000E96E070E5014509CE906501407E150B8BF
:10024000E92A50B803D0200E006E1CD0E9264F0ECC
:10025000E95CD8B4508CEF50006E08E150BC06D079
:1002600050B814D050B602D0200E0BD050AE06D0ED
:100270002D0E006EED50509C509E04D0508650982C
:10028000300E002600509EA8FED7AD6EEE5050AC4A
:10029000DED712005050016A4F5C03E24FC000F0FD
:1002A0000CD0006A080E516E4F3600365050005C7C
:1002B000D8B0006E0136512EF7D71200200E4AA892
:1002C000300E4B6E49C000F049AE08D0001E002A27
:1002D00000C049F02D0E4B6E4A8E4A80015049C035
:1002E0004FF0640E506ED6DF00C049F0300E01248E
:1002F0004C6E49C04FF00A0E506ECCDF300E002419
:100300004E6E300E01244D6E4BC000F0300E4C5C32
:1003100004E04A824ABE4A8412D04BC04CF0200E00
:100320004B6E300E4D5C04E04A804ABE4A8207D0D4
:10033000D8A44A8004E14CC04DF0200E4C6E4AB463
:1003400005D04AB207D04AB009D00CD04B509EA875
:10035000FED7AD6E4C509EA8FED7AD6E4D509EA8F8
:10036000FED7AD6E4E509EA8FED7AD6E89EF02F05F
:10037000F86AD09E078EFE0E006E060E016E020E0B
:10038000E96E000EEA6EEE6A002EFDD7012EFBD755
:10039000EA6AE96A330EAF6EA20EAC6E900EAB6ED7
:1003A000C180C182C184C196936881CF21F0F2904F
:1003B000F286C00EF212240EF66E010EF76EC7D64C
:1003C000040E466EFA0E476ED4DE462EFBD7938699
:1003D00081A657D01FB055D01F80236A235009082B
:1003E0004AE3D8902334036A320FE96E000E0320EB
:1003F000EA6EECCF47F0ED52EFCF46F046521BE1EC
:10040000475219E1D8902334036A320FE96E000E87
:100410000320EA6E2FC0ECFFED522EC0EFFF036AFF
:100420002350240FE96E000E0320EA6EEF2A23C04A
:1004300022F021D01ED0D8902334036A320FE96E07
:10044000000E0320EA6EECCF47F0ED52EFCF46F0FE
:100450002E50465C0EE12F50475C0BE1036A23509F
:10046000240FE96E000E0320EA6EEF2A23C022F06B
:1004700002D0232AB3D72F6A2E6A0A0E476E79DE7E
:1004800003D01FA001D01F9030502E5C03E13150EB
:100490002F5C46E02FC031F02EC030F0D8902234CF
:1004A000036A320FE96E000E0320EA6EECCF47F0CC
:1004B000ED52EFCF46F0036A2250240FE96E000E92
:1004C0000320EA6EEFCF48F0340EF66E010EF76EA1
:1004D000060E496E61DE020EE96E2FC04AF02EC094
:1004E00049F06ADE3E0EF66E010EF76E060E496E9C
:1004F00053DE020EE96E47C04AF046C049F05CDEAA
:10050000200E9EA8FED7AD6E48C049F0110E4A6E6F
:10051000D5D6020E466E960E476E2BDE462EFBD7C4
:0805200056D7000E016E030026
:020000040030CA
:0E00000000260E0E000181000FC00FE00F4021
:00000001FF
;PIC18F252
;CRC=51C6  CREATED="03-nov-14 13:57"
