:04000000CAEF03F050
:08000800046ED8CF05F0E0CF33
:1000100006F00001E9CF0CF0EACF07F0E1CF08F0DD
:10002000E2CF09F0D9CF0AF0DACF0BF0F3CF12F01C
:10003000F4CF13F0FACF14F0F5CF15F0F6CF16F099
:10004000F7CF17F000C00EF001C00FF002C010F0A3
:1000500003C011F0F0A830EF00F0F0B25DEF00F057
:10006000F2A636EF00F0F2B063EF00F00EC000F041
:100070000FC001F010C002F011C003F00CC0E9FF86
:1000800007C0EAFF078E08C0E1FF09C0E2FF0AC00F
:10009000D9FF0BC0DAFF12C0F3FF13C0F4FF14C086
:1000A000FAFF15C0F5FF16C0F6FF17C0F7FF0450A2
:1000B00006C0E0FF05C0D8FF1000F092236A226A54
:1000C000F09236EF00F0F290040E006E002EFED794
:1000D00000D0936881502118206E936881CF21F061
:1000E00020A80ED01F909388000E81B8010E446E98
:1000F000938A000E81BA010E445C01E01F800FD08C
:1001000020AA0DD01F909388000E81B8010E446E76
:10011000938A000E81BA010E445C01E11F801FA08A
:1001200004D0222AD8B4232A04D02250D8B42306DB
:100130002206F29036EF00F0546573746520456E28
:10014000636F6465720A0D00506F733A2025346C3A
:1001500064202D20416E673A2025332E32660A0D29
:1001600000000900F5520DE0F6CF26F0F7CF27F09A
:10017000F5509EA8FED7AD6E26C0F6FF27C0F7FF4C
:10018000F0D702EF04F0EA6A270EE96EEF500EE0B6
:10019000130E016E006A002EFED7012EFBD7730EE0
:1001A000006E002EFED70000EF2EF2D712008E0E4A
:1001B000006E27C001F026C002F0036A27AE05D00A
:1001C000011E021E022A01E1012A015209E102C0B8
:1001D00001F0026A080E005E015202E1006A0AD0D4
:1001E000D89001BE04D0023601360006F9D727BEEA
:1001F00001D0019E18EF04F03750D8B471D0006ED2
:100200003B50D8B46DD0002604E3810E002668E28E
:1002100004D07F0E005E64E363E038C03FF03C50E2
:100220003F1A388E3C8E3A503E02F4CF41F039509E
:100230003D02F4CF03F0F3CF40F03E02F3504126ED
:10024000F4504022000E03223A503D02F350412662
:10025000F4504022000E026A0322022238503E026D
:10026000F3504026F4500322000E022238503D0283
:10027000F3500326F4500222000E016A01223A5084
:100280003C02F3504026F4500322000E02220122C9
:1002900039503C02F3500326F4500222000E012292
:1002A00038503C02F3500226F4500122002A01BECD
:1002B00005D040360336023601360006000E40AE49
:1002C0000AD0032A02220122015005E1025003E173
:1002D000035001E1002A3FBE018E3FAE019E04D0D3
:1002E000006A016A026A036A12002A50D8B4A5D0D3
:1002F000366E2E50D8B4A1D0365E05E37F0E36267A
:10030000D8B09BD006D0810E365ED8A096D0D8B497
:1003100094D036C000F0016A026A036A356A2BC0C5
:1003200034F0348E2CC033F02DC032F0190E366EFE
:100330003150325E0DE2010E335E0AE2345E08E2B5
:10034000355E06E2352A342A332A3150322628D047
:100350003050335E12E2010E345E0FE2355E0DE284
:10036000352A342A305033263150322619E3332AC5
:1003700017E1342A15E1352A13D02F508009345E55
:100380000EE2010E355E0BE2352A2F50800934262D
:1003900030503326E9E3342AE7E1352AE5D70380F4
:1003A000362E01D00BD0D89032363336343635362F
:1003B000D8900336023601363736BAD737A006D082
:1003C000D890013202320332373202D0000635E0D3
:1003D00037BE1ED0D89032363336343635363150AB
:1003E000325E07E2010E335E04E2345E02E2355E05
:1003F0001AE33050335E05E2010E345E02E2355EF0
:1004000012E32F508009345E03E2010E355E0BE3E8
:10041000032A09E1022A07E1012A05E1002A0DE089
:100420000132023203322BC036F02F50361A36AE6C
:1004300002D0018E06D0019E04D0006A016A026AD1
:10044000036A47EF04F00900F6CF2BF0F7CF2CF04A
:10045000F5509EA8FED7AD6E2BC0F6FF2CC0F7FF5F
:100460002A2EF1D71200EACF32F0E9CF31F02BAECD
:1004700008D0318E31A8312A2A1E2B1E2A2AD8B440
:100480002B2A2B38F0092D6E2D26E20F2E6E320FFF
:10049000306E2B500F0B2E262E263026E90F2F6E96
:1004A0002F262F262A380F0B2F2630262F363036B0
:1004B000301E30362A500F0B30262D36070E2C6E8C
:1004C0000A0E2F063026FDE32E062F26FDE32D060D
:1004D0002E26FDE32C062D26FDE3EA6A2C0EE96E9E
:1004E000070E3114319CE906311407E131B8E92ACD
:1004F00031B803D0200E006E1CD0E926300EE95C26
:10050000D8B4318CEF50006E08E131BC06D031B860
:1005100014D031B602D0200E0BD031AE06D02D0E45
:10052000006EED50319C319E04D031863198300EF2
:10053000002600509EA8FED7AD6EEE5031ACDED73F
:100540005DEF04F03750B608376E036A38C03BF0F1
:10055000388ED890383239323A3203320232013290
:100560000032372EF6D73BAE0BD0001E011E021E06
:10057000031E002AD8B4012AD8B4022AD8B4032A08
:1005800030EF03F0D8B203D0EA6A3F0EE96E006A9A
:10059000016A026A036A3F6A406A416A426A3E50DF
:1005A0003D103C103B102CE0200E436ED8903736A7
:1005B000383639363A363F364036413642363E5086
:1005C000425C08E13D50415C05E13C50405C02E189
:1005D0003B503F5C0FE33B503F5E3C50D8A03C3C5F
:1005E000405E3D50D8A03D3C415E3E50D8A03E3CD0
:1005F000425ED8800036013602360336432ED6D707
:100600003FC0EFFF40C0ECFF41C0ECFF42C0ECFF39
:100610001200E9502F6E2E50316E19E02DC03AF0C5
:100620002CC039F02BC038F02AC037F03E6A3D6A42
:10063000200E3C6E820E3B6EDFDD03C02DF002C04B
:100640002CF001C02BF000C02AF0312EE7D72DC0CE
:100650003AF02CC039F02BC038F02AC037F072D7EE
:1006600003C02DF002C02CF001C02BF000C02AF016
:100670002DAE0DD02F062F8A2A1E2B1E2C1E2D1EAE
:100680002A2AD8B42B2AD8B42C2AD8B42D2A3B0E27
:10069000366E9A0E356ECA0E346E336A0A0E316E9D
:1006A0002E50D8B42F2AD882EA6A2A0EE96E2DC0BD
:1006B0003AF02CC039F02BC038F02AC037F036C0E1
:1006C0003EF035C03DF034C03CF033C03BF05ADF63
:1006D000015000520FE12E28315C0CE02F500CE04D
:1006E0000F0B315C01E03BE22FBE39D02FBC04D0B0
:1006F000200E30D0200E2F162FAA0DD02F9A2E505C
:10070000D8A42F0600502F6E2D0E9EA8FED7AD6EDA
:100710002F50006E2F6A2E50315C0BE100502F6E6F
:100720002E0E9EA8FED7AD6E2F50006E200E2F16F7
:10073000000E300E2FAA0ED02F9A2E50D8A42F06BE
:1007400000502F6E2D0E9EA8FED7AD6E2F50006E5E
:100750002F6A300E002600509EA8FED7AD6ED892AC
:1007600036C03AF035C039F034C038F033C037F015
:100770003E6A3D6A3C6A0A0E3B6E04DF03C036F0F7
:1007800002C035F001C034F000C033F0312E8BD7F9
:1007900070EF04F0F86AD09E078EFE0E006E060E13
:1007A000016E020EE96E000EEA6EEE6A002EFDD7B3
:1007B000012EFBD7EA6AE96AB8861A0EAF6E060EFA
:1007C000B06EA60EAC6E900EAB6EC150F00BC16E4B
:1007D000000E0F01386F396F3A6F776A786A796A5D
:1007E000936881CF21F0F290F286FF0E6212F092B0
:1007F000F088F198C00EF212380EF66E010EF76E08
:100800000001AFD4040E266EFA0E276EBCDC262E35
:10081000FBD72450225C03E12550235C70E023C009
:1008200025F022C024F023C027F022C026F0BFD438
:1008300000C026F001C027F002C028F003C029F054
:1008400003C03AF002C039F001C038F000C037F000
:100850003E6A3D6A340E3C6E870E3B6ECDDC00C0B6
:1008600026F001C027F002C028F003C029F003C021
:100870002DF002C02CF001C02BF000C02AF0316A2C
:10088000C00E306E7F0E2F6E8A0E2E6E2ED500C0DB
:1008900026F001C027F002C028F003C029F0480E5E
:1008A000F66E010EF76E050E2A6ECDDD020EE96EB4
:1008B00023C02BF022C02AF0D6D5510EF66E010EC1
:1008C000F76E080E2A6EBFDD020EE96E29C02DF00C
:1008D00028C02CF027C02BF026C02AF02E6E99D607
:1008E0000A0E9EA8FED7AD6E0D0E9EA8FED7AD6E69
:1008F000020E266E960E276E46DC262EFBD789D773
:06090000000E016E030071
:020000040030CA
:0E00000000F31E3C00BF81000FC00FE00F4058
:00000001FF
;PIC18F25K22
;CRC=849F  CREATED="27-out-14 16:03"
